:1000000019C020C01FC01EC01DC01CC01BC01AC00C
:1000100019C018C017C016C015C014C013C012C034
:1000200011C010C00FC00EC00DC00CC00BC00AC064
:1000300009C008C011241FBECFEFCDBFDFE3DEBF74
:1000400068D0AAC0DDCF809104048F7B8093040424
:100050008AE09AE10197F1F700C08091000480687E
:1000600080930004809104048F778093040480E0DF
:1000700020E89091080491FD0FC095E530ED40E037
:10008000915030404040E1F78F5F803190F380FD28
:10009000F0CF20930704EDCF95E520ED30E09150AF
:1000A00020403040E1F78031F8F0809104048F77F0
:1000B0008093040485E09DE00197F1F700008091B2
:1000C00004048064809304048AE09AE10197F1F7C4
:1000D00000C080910404806880930404809100042F
:1000E0008F77809300040895809104048068809342
:1000F0000404809100048F77809300048AE09AE1E1
:100100000197F1F700C08091040480648093040497
:10011000089588E08093110480EC8093040480E4C7
:1001200080930004C0E0D0EC909108049095892F52
:100130008C7011F192FF14C0C11114C0809104049D
:100140008F7B80930404EAE0FAE13197F1F700C075
:100150008091000480688093000480E8C1E003C0BF
:1001600080EC01C080E893FD8F77C11102C0C0E030
:10017000DBCF80930404D8CFCC2341F0D093040488
:10018000809100048F7780930004F1CF8091080460
:0C01900081FDEDCF58DFC8CFF894FFCF01
:00000001FF
