:1000000019C020C01FC01EC01DC01CC01BC01AC00C
:1000100019C018C017C016C015C014C013C012C034
:1000200011C010C00FC00EC00DC00CC00BC00AC064
:1000300009C008C011241FBECFEFCDBFDFE3DEBF74
:100040003ED080C0DDCF809104048F7B8093040478
:100050008AE09AE10197F1F700C08091000480687E
:1000600080930004809104048F778093040480912E
:10007000080481FD08C095E520ED80E09150204006
:100080008040E1F7F4CF95E520ED80E091502040ED
:100090008040E1F78091040480688093040480919B
:1000A00000048F77809300048AE09AE10197F1F7CA
:1000B00000C080910404806480930404089588E063
:1000C0008093110480EC8093040480E48093000406
:1000D000C0E0D0EC909108049095892F8C7011F1BC
:1000E00092FF14C0C11114C0809104048F7B8093CF
:1000F0000404EAE0FAE13197F1F700C080910004CE
:1001000080688093000480E8C1E003C080EC01C0F7
:1001100080E893FD8F77C11102C0C0E0DBCF8093F0
:100120000404D8CFCC2341F0D09304048091000480
:100130008F7780930004F1CF8091080481FDEDCF8B
:0801400082DFC8CFF894FFCF65
:00000001FF
