:1000000019C020C01FC01EC01DC01CC01BC01AC00C
:1000100019C018C017C016C015C014C013C012C034
:1000200011C010C00FC00EC00DC00CC00BC00AC064
:1000300009C008C011241FBECFEFCDBFDFE3DEBF74
:1000400045D082C0DDCF8091080490E080959095E6
:10005000827099270895809104048F7B8093040413
:100060008AE09AE10197F1F700C08091000480686E
:1000700080930004809104048F7780930404E3DF6D
:10008000892B41F095E520ED80E0915020408040A3
:10009000E1F7F5CF95E520ED80E0915020408040DC
:1000A000E1F7809104048068809304048091000447
:1000B0008F77809300048AE09AE10197F1F700C0FE
:1000C00080910404806480930404089588E0809300
:1000D000110480EC8093040480E48093000480E0A9
:1000E000C0EC209108042095922F9C7001F122FF12
:1000F00014C0811114C0809104048F7B8093040488
:100100008AE09AE10197F1F700C0809100048068CD
:100110008093000490E881E003C090EC01C090E877
:1001200023FD9F77882351F090930404DACFC09386
:100130000404809100048F778093000484DF892B6E
:0C01400009F089DF80E0CDCFF894FFCFFC
:00000001FF
